:0200000056297F
:10000800FF00030E8301A9000A08AA008A01040858
:10001800A0008B1C18288B102608033A031D1628ED
:10002800A6011728A60AB0200B1C20280B10061EB4
:100038001F28B02020280321200884002A088A00CD
:0A004800290E8300FF0E7F0E090051
:1000520083120313F8010830FC00700DF80D7408C8
:10006200F80203183628F8070310F00DFC0B2E28AF
:02007200080084
:10007400831203132608213E840000088800B0017F
:10008400323030020318A6280A30F4002C08F0009D
:1000940029207008003A031D5228F030AE0054287D
:1000A400E030AE002E08700487000D30FC00FB30F9
:1000B400FD00FD0B5B28FC0B5B28000000000A30F0
:1000C400F4002C08F00029207808F000D0307004E7
:1000D40087000D30FC00FB30FD00FD0B6F28FC0B8E
:1000E4006F28000000000A30F4002D08F0002920D9
:1000F4007008003A031D8128F030AF008328B03027
:10010400AF002F08700487000D30FC00FB30FD00A9
:10011400FD0B8A28FC0B8A28000000000A30F4003A
:100124002D08F00029207808F00070307004870052
:100134000D30FC00FB30FD00FD0B9E28FC0B9E28BF
:0E01440000000000B00A4228F03087000800DA
:0E0152008312031328088A0027088200080081
:10016000F0308312031387002608213E8400000824
:100170008800E1282630A500F1281230A5002508C6
:100180000F3C0318CD280F302502F0007008AC009A
:100190007008AD003A20A503BF280230A600F12860
:1001A0000F30A500F1280330A50025080319DF282A
:1001B0002508AC002508AD003A20A503D528A601E6
:1001C000F1282608003A0319BA282608013A03192B
:1001D000BD282608023A0319D0282608033A031935
:0E01E000D3282608213E84000008880008006D
:1001EE00A9208A110A128000840AA70A0319A80AF4
:0801FE00F003031DF7280800BF
:1002060083120313250803190B292508AB000D29B2
:100216002630AB002B08A500250803195529061A18
:1002260055292508123C03182129A6010F3025025D
:10023600AC0012302502AD003A204C292508123CAC
:10024600031C342925080F3C031834290130A60065
:100256000F302502F0007008AC007008AD003A209F
:100266004C2925080F3C031C45292508033C031887
:1002760045290230A60003302502AC002508AD0052
:100286003A204C290330A6002508AC002508AD000D
:100296003A202508013A031D53292630A500542982
:0602A600A5030F2908006A
:1002AC00213083120313A1001130A2000C30A300E3
:1002BC000A30A4002630A500A601831601130030D5
:1002CC00011B01308800080887000B140B187029DB
:1002DC008B1171298B158B1975290B1276290B161D
:1002EC000B1A7A298B137B298B178B1B7F290612F0
:1002FC0080290616061A8429061085290614F03062
:0A030C0083128700630088298A2904
:02400E004A2F37
:00000001FF
